:0300000002018179
:0C018100787FE4F6D8FD7581230201C8E8
:1002AD00011D00011B04011C05011E00C101C180BF
:0602BD00C102021900005D
:0B03520075B0FED2AF12032E02034272
:1002E50053B0F1E51D5407FF25E042B0C2B4120337
:1002F5005DD2B453B0F1E51D5438FF1313543F429A
:0C030500B0C2B512035DD2B543B00E22A9
:10000E00E4F52320B105752301800E20B20575237A
:10001E0002800620B303752304E523600A30010332
:10002E00432308D2018008300105C201751E01E587
:10003E001E6010051ED3E51E944674809480400306
:0F004E00E4F51E12035DE51E60037F0022AF2361
:01005D002280
:10031100EFFD7C007005C28CC2B022ED64044C700C
:0D03210005C28CD2B022EF14F518D28C2248
:10006600E4F521F522120352751D3F1202E5120036
:100076000EEF7003020116540C6404702730001250
:10008600E51BC39404748094805007051B30027BE3
:10009600802C200076E51CC3943F74809480506BBE
:1000A600051C8067EF540A64027029300014E51BB2
:1000B600D39401748094804009151B30024DAF1B08
:1000C6008046200046E51CD3940174809480403B12
:1000D600151C8037EF30E033C3E5229440E52194C8
:1000E60006500A0522E52270220521801EE522F42B
:1000F6007003E521F4601474FFF521F522B2023095
:100106000204AF1B80027F00120311E4F51D80413B
:10011600D3E5229400E52194004016E522F470030D
:10012600E521F46007E4F521F522B200E4F521F5B6
:1001360022300012E51B14FFF87401088002C33355
:10014600D8FCF51D800B300404AF1C80027F008FA5
:100156001D30B503020071051AE51A70020519D3A0
:100166009410E51994275003020071C202E4FF12AD
:0B017600031153B0F143870202007137
:08035D007F017E92DEFEDFFC51
:010365002275
:1002C3000C09FF10FE98FF4CFE5CFF88FE2001180E
:1002D30000C104011500011700011600010800C147
:0102E3000317
:10032E00438E805389F0438901758AFF758CFFC215
:04033E008DD2A92291
:10034200438E0475D7D075D68A43AF04438E1022EC
:03000B000202648A
:10026400C0E0C0D075D000C00030031AC203D2B0C1
:10027400E51825E025E0240BF8E6F58CE51825E0E3
:1002840025E0240C8018D203C2B0E51825E025E04F
:100294002409F8E6F58CE51825E025E0240AF8E6BB
:0902A400F58AD000D0D0D0E03280
:0300630002020D89
:10020D00C0E0C0F0C0D00515E51575F02884E5F007
:10021D007002B204E51564C87036F5153002280574
:10022D0017E517643C7029F5170516E516641E7061
:10023D001FF5160508E508C3951C4014C28C7508FA
:10024D0000C202C2B080097508007516007517004E
:07025D00D0D0D0F0D0E03258
:10018D00020066E493A3F8E493A34003F68001F222
:10019D0008DFF48029E493A3F85407240CC8C33373
:1001AD00C4540F4420C8834004F456800146F6DF42
:1001BD00E4800B01020408102040809002ADE47E23
:1001CD00019360BCA3FF543F30E509541FFEE49337
:1001DD00A360010ECF54C025E060A840B8E493A3FE
:1001ED00FAE493A3F8E493A3C8C582C8CAC583CA29
:1001FD00F0A3C8C582C8CAC583CADFE9DEE780BEE1
:0102E4000019
:00000001FF
